{
  "contractName": "Vehicles",
  "abi": [
    {
      "inputs": [
        {
          "internalType": "uint256",
          "name": "",
          "type": "uint256"
        }
      ],
      "name": "v_id",
      "outputs": [
        {
          "internalType": "string",
          "name": "",
          "type": "string"
        }
      ],
      "stateMutability": "view",
      "type": "function"
    },
    {
      "inputs": [
        {
          "internalType": "string",
          "name": "",
          "type": "string"
        }
      ],
      "name": "vehicleData",
      "outputs": [
        {
          "internalType": "string",
          "name": "vehicle_id",
          "type": "string"
        },
        {
          "internalType": "string",
          "name": "vehicle_type",
          "type": "string"
        },
        {
          "internalType": "uint256",
          "name": "trust",
          "type": "uint256"
        },
        {
          "internalType": "string",
          "name": "report",
          "type": "string"
        }
      ],
      "stateMutability": "view",
      "type": "function"
    },
    {
      "inputs": [
        {
          "internalType": "string",
          "name": "vehicle_id",
          "type": "string"
        },
        {
          "internalType": "string",
          "name": "vehicle_type",
          "type": "string"
        },
        {
          "internalType": "uint256",
          "name": "trust",
          "type": "uint256"
        },
        {
          "internalType": "string",
          "name": "report",
          "type": "string"
        }
      ],
      "name": "getVehicleData",
      "outputs": [],
      "stateMutability": "nonpayable",
      "type": "function"
    },
    {
      "inputs": [],
      "name": "showVehicleData",
      "outputs": [
        {
          "internalType": "string[]",
          "name": "",
          "type": "string[]"
        }
      ],
      "stateMutability": "view",
      "type": "function"
    }
  ],
  "bytecode": "0x608060405234801561001057600080fd5b50610bfa806100206000396000f3fe608060405234801561001057600080fd5b506004361061004c5760003560e01c8063042101ab146100515780632123175c1461006f5780636b2df527146100a2578063b824a81a146100d2575b600080fd5b6100596100ee565b604051610066919061076a565b60405180910390f35b610089600480360381019061008491906108d5565b6101c7565b6040516100999493929190610981565b60405180910390f35b6100bc60048036038101906100b79190610a07565b6103a5565b6040516100c99190610a34565b60405180910390f35b6100ec60048036038101906100e79190610a56565b610451565b005b60606001805480602002602001604051908101604052809291908181526020016000905b828210156101be57838290600052602060002001805461013190610b40565b80601f016020809104026020016040519081016040528092919081815260200182805461015d90610b40565b80156101aa5780601f1061017f576101008083540402835291602001916101aa565b820191906000526020600020905b81548152906001019060200180831161018d57829003601f168201915b505050505081526020019060010190610112565b50505050905090565b60008180516020810182018051848252602083016020850120818352809550505050505060009150905080600001805461020090610b40565b80601f016020809104026020016040519081016040528092919081815260200182805461022c90610b40565b80156102795780601f1061024e57610100808354040283529160200191610279565b820191906000526020600020905b81548152906001019060200180831161025c57829003601f168201915b50505050509080600101805461028e90610b40565b80601f01602080910402602001604051908101604052809291908181526020018280546102ba90610b40565b80156103075780601f106102dc57610100808354040283529160200191610307565b820191906000526020600020905b8154815290600101906020018083116102ea57829003601f168201915b50505050509080600201549080600301805461032290610b40565b80601f016020809104026020016040519081016040528092919081815260200182805461034e90610b40565b801561039b5780601f106103705761010080835404028352916020019161039b565b820191906000526020600020905b81548152906001019060200180831161037e57829003601f168201915b5050505050905084565b600181815481106103b557600080fd5b9060005260206000200160009150905080546103d090610b40565b80601f01602080910402602001604051908101604052809291908181526020018280546103fc90610b40565b80156104495780601f1061041e57610100808354040283529160200191610449565b820191906000526020600020905b81548152906001019060200180831161042c57829003601f168201915b505050505081565b610459610544565b848160000181905250838160200181905250828160400181815250508181606001819052508060008660405161048f9190610bad565b908152602001604051809103902060008201518160000190805190602001906104b992919061056c565b5060208201518160010190805190602001906104d692919061056c565b506040820151816002015560608201518160030190805190602001906104fd92919061056c565b5090505060018590806001815401808255809150506001900390600052602060002001600090919091909150908051906020019061053c92919061056c565b505050505050565b6040518060800160405280606081526020016060815260200160008152602001606081525090565b82805461057890610b40565b90600052602060002090601f01602090048101928261059a57600085556105e1565b82601f106105b357805160ff19168380011785556105e1565b828001600101855582156105e1579182015b828111156105e05782518255916020019190600101906105c5565b5b5090506105ee91906105f2565b5090565b5b8082111561060b5760008160009055506001016105f3565b5090565b600081519050919050565b600082825260208201905092915050565b6000819050602082019050919050565b600081519050919050565b600082825260208201905092915050565b60005b8381101561067557808201518184015260208101905061065a565b83811115610684576000848401525b50505050565b6000601f19601f8301169050919050565b60006106a68261063b565b6106b08185610646565b93506106c0818560208601610657565b6106c98161068a565b840191505092915050565b60006106e0838361069b565b905092915050565b6000602082019050919050565b60006107008261060f565b61070a818561061a565b93508360208202850161071c8561062b565b8060005b85811015610758578484038952815161073985826106d4565b9450610744836106e8565b925060208a01995050600181019050610720565b50829750879550505050505092915050565b6000602082019050818103600083015261078481846106f5565b905092915050565b6000604051905090565b600080fd5b600080fd5b600080fd5b600080fd5b7f4e487b7100000000000000000000000000000000000000000000000000000000600052604160045260246000fd5b6107e28261068a565b810181811067ffffffffffffffff82111715610801576108006107aa565b5b80604052505050565b600061081461078c565b905061082082826107d9565b919050565b600067ffffffffffffffff8211156108405761083f6107aa565b5b6108498261068a565b9050602081019050919050565b82818337600083830152505050565b600061087861087384610825565b61080a565b905082815260208101848484011115610894576108936107a5565b5b61089f848285610856565b509392505050565b600082601f8301126108bc576108bb6107a0565b5b81356108cc848260208601610865565b91505092915050565b6000602082840312156108eb576108ea610796565b5b600082013567ffffffffffffffff8111156109095761090861079b565b5b610915848285016108a7565b91505092915050565b600082825260208201905092915050565b600061093a8261063b565b610944818561091e565b9350610954818560208601610657565b61095d8161068a565b840191505092915050565b6000819050919050565b61097b81610968565b82525050565b6000608082019050818103600083015261099b818761092f565b905081810360208301526109af818661092f565b90506109be6040830185610972565b81810360608301526109d0818461092f565b905095945050505050565b6109e481610968565b81146109ef57600080fd5b50565b600081359050610a01816109db565b92915050565b600060208284031215610a1d57610a1c610796565b5b6000610a2b848285016109f2565b91505092915050565b60006020820190508181036000830152610a4e818461092f565b905092915050565b60008060008060808587031215610a7057610a6f610796565b5b600085013567ffffffffffffffff811115610a8e57610a8d61079b565b5b610a9a878288016108a7565b945050602085013567ffffffffffffffff811115610abb57610aba61079b565b5b610ac7878288016108a7565b9350506040610ad8878288016109f2565b925050606085013567ffffffffffffffff811115610af957610af861079b565b5b610b05878288016108a7565b91505092959194509250565b7f4e487b7100000000000000000000000000000000000000000000000000000000600052602260045260246000fd5b60006002820490506001821680610b5857607f821691505b602082108103610b6b57610b6a610b11565b5b50919050565b600081905092915050565b6000610b878261063b565b610b918185610b71565b9350610ba1818560208601610657565b80840191505092915050565b6000610bb98284610b7c565b91508190509291505056fea26469706673582212201d5c052fb611451e680270541534045310c1ec794f0742506ad1d45349bdc61264736f6c634300080d0033",
  "immutableReferences": {},
  "source": "// SPDX-License-Identifier: MIT\npragma solidity >=0.4.22 <0.9.0;\n\ncontract Vehicles {\n    struct Vehicle {\n        string vehicle_id;\n        string vehicle_type;\n        //    once voting has started, the list of participants who have voted\n        uint256 trust;\n        \n        string report;\n    }\n    mapping(string => Vehicle) public vehicleData;\n\n    string[] public v_id;\n\n    function getVehicleData(\n        string memory vehicle_id,\n        string memory vehicle_type,\n        uint256 trust,\n        string memory report\n    ) public {\n        Vehicle memory obj;\n        obj.vehicle_id = vehicle_id;\n        obj.vehicle_type = vehicle_type;\n        obj.trust = trust;\n        obj.report = report;\n\n        vehicleData[vehicle_id] = obj;\n        v_id.push(vehicle_id);\n    }\n\n    function showVehicleData() public view returns (string[] memory) {\n        return v_id;\n    }\n}\n",
  "sourcePath": "C:\\Users\\goura\\OneDrive\\Desktop\\blockchain\\rp\\truffle\\contracts\\SimpleStorage.sol",
  "compiler": {
    "name": "solc",
    "version": "0.8.13+commit.abaa5c0e.Emscripten.clang"
  },
  "schemaVersion": "3.4.16",
  "updatedAt": "2023-11-13T15:35:21.268Z",
  "devdoc": {
    "kind": "dev",
    "methods": {},
    "version": 1
  },
  "userdoc": {
    "kind": "user",
    "methods": {},
    "version": 1
  }
}