{
  "contractName": "Vehicles",
  "abi": [
    {
      "inputs": [
        {
          "internalType": "uint256",
          "name": "",
          "type": "uint256"
        }
      ],
      "name": "v_id",
      "outputs": [
        {
          "internalType": "string",
          "name": "",
          "type": "string"
        }
      ],
      "stateMutability": "view",
      "type": "function",
      "constant": true
    },
    {
      "inputs": [
        {
          "internalType": "string",
          "name": "",
          "type": "string"
        }
      ],
      "name": "vehicleData",
      "outputs": [
        {
          "internalType": "string",
          "name": "vehicle_id",
          "type": "string"
        },
        {
          "internalType": "string",
          "name": "vehicle_type",
          "type": "string"
        },
        {
          "internalType": "uint256",
          "name": "trust",
          "type": "uint256"
        },
        {
          "internalType": "uint256",
          "name": "sector",
          "type": "uint256"
        }
      ],
      "stateMutability": "view",
      "type": "function",
      "constant": true
    },
    {
      "inputs": [
        {
          "internalType": "string",
          "name": "vehicle_id",
          "type": "string"
        },
        {
          "internalType": "string",
          "name": "vehicle_type",
          "type": "string"
        },
        {
          "internalType": "uint256",
          "name": "trust",
          "type": "uint256"
        },
        {
          "internalType": "uint256",
          "name": "sector",
          "type": "uint256"
        }
      ],
      "name": "getVehicleData",
      "outputs": [],
      "stateMutability": "nonpayable",
      "type": "function"
    },
    {
      "inputs": [],
      "name": "showVehicleData",
      "outputs": [
        {
          "internalType": "string[]",
          "name": "",
          "type": "string[]"
        }
      ],
      "stateMutability": "view",
      "type": "function",
      "constant": true
    }
  ],
  "bytecode": "0x608060405234801561001057600080fd5b50610b3d806100206000396000f3fe608060405234801561001057600080fd5b506004361061004c5760003560e01c8063042101ab146100515780632123175c1461006f57806366933367146100a25780636b2df527146100be575b600080fd5b6100596100ee565b60405161006691906106d0565b60405180910390f35b6100896004803603810190610084919061083b565b6101c7565b60405161009994939291906108e7565b60405180910390f35b6100bc60048036038101906100b79190610966565b61031d565b005b6100d860048036038101906100d39190610a05565b6103fe565b6040516100e59190610a32565b60405180910390f35b60606001805480602002602001604051908101604052809291908181526020016000905b828210156101be57838290600052602060002001805461013190610a83565b80601f016020809104026020016040519081016040528092919081815260200182805461015d90610a83565b80156101aa5780601f1061017f576101008083540402835291602001916101aa565b820191906000526020600020905b81548152906001019060200180831161018d57829003601f168201915b505050505081526020019060010190610112565b50505050905090565b60008180516020810182018051848252602083016020850120818352809550505050505060009150905080600001805461020090610a83565b80601f016020809104026020016040519081016040528092919081815260200182805461022c90610a83565b80156102795780601f1061024e57610100808354040283529160200191610279565b820191906000526020600020905b81548152906001019060200180831161025c57829003601f168201915b50505050509080600101805461028e90610a83565b80601f01602080910402602001604051908101604052809291908181526020018280546102ba90610a83565b80156103075780601f106102dc57610100808354040283529160200191610307565b820191906000526020600020905b8154815290600101906020018083116102ea57829003601f168201915b5050505050908060020154908060030154905084565b6103256104aa565b84816000018190525083816020018190525082816040018181525050818160600181815250508060008660405161035c9190610af0565b908152602001604051809103902060008201518160000190805190602001906103869291906104d2565b5060208201518160010190805190602001906103a39291906104d2565b5060408201518160020155606082015181600301559050506001859080600181540180825580915050600190039060005260206000200160009091909190915090805190602001906103f69291906104d2565b505050505050565b6001818154811061040e57600080fd5b90600052602060002001600091509050805461042990610a83565b80601f016020809104026020016040519081016040528092919081815260200182805461045590610a83565b80156104a25780601f10610477576101008083540402835291602001916104a2565b820191906000526020600020905b81548152906001019060200180831161048557829003601f168201915b505050505081565b6040518060800160405280606081526020016060815260200160008152602001600081525090565b8280546104de90610a83565b90600052602060002090601f0160209004810192826105005760008555610547565b82601f1061051957805160ff1916838001178555610547565b82800160010185558215610547579182015b8281111561054657825182559160200191906001019061052b565b5b5090506105549190610558565b5090565b5b80821115610571576000816000905550600101610559565b5090565b600081519050919050565b600082825260208201905092915050565b6000819050602082019050919050565b600081519050919050565b600082825260208201905092915050565b60005b838110156105db5780820151818401526020810190506105c0565b838111156105ea576000848401525b50505050565b6000601f19601f8301169050919050565b600061060c826105a1565b61061681856105ac565b93506106268185602086016105bd565b61062f816105f0565b840191505092915050565b60006106468383610601565b905092915050565b6000602082019050919050565b600061066682610575565b6106708185610580565b93508360208202850161068285610591565b8060005b858110156106be578484038952815161069f858261063a565b94506106aa8361064e565b925060208a01995050600181019050610686565b50829750879550505050505092915050565b600060208201905081810360008301526106ea818461065b565b905092915050565b6000604051905090565b600080fd5b600080fd5b600080fd5b600080fd5b7f4e487b7100000000000000000000000000000000000000000000000000000000600052604160045260246000fd5b610748826105f0565b810181811067ffffffffffffffff8211171561076757610766610710565b5b80604052505050565b600061077a6106f2565b9050610786828261073f565b919050565b600067ffffffffffffffff8211156107a6576107a5610710565b5b6107af826105f0565b9050602081019050919050565b82818337600083830152505050565b60006107de6107d98461078b565b610770565b9050828152602081018484840111156107fa576107f961070b565b5b6108058482856107bc565b509392505050565b600082601f83011261082257610821610706565b5b81356108328482602086016107cb565b91505092915050565b600060208284031215610851576108506106fc565b5b600082013567ffffffffffffffff81111561086f5761086e610701565b5b61087b8482850161080d565b91505092915050565b600082825260208201905092915050565b60006108a0826105a1565b6108aa8185610884565b93506108ba8185602086016105bd565b6108c3816105f0565b840191505092915050565b6000819050919050565b6108e1816108ce565b82525050565b600060808201905081810360008301526109018187610895565b905081810360208301526109158186610895565b905061092460408301856108d8565b61093160608301846108d8565b95945050505050565b610943816108ce565b811461094e57600080fd5b50565b6000813590506109608161093a565b92915050565b600080600080608085870312156109805761097f6106fc565b5b600085013567ffffffffffffffff81111561099e5761099d610701565b5b6109aa8782880161080d565b945050602085013567ffffffffffffffff8111156109cb576109ca610701565b5b6109d78782880161080d565b93505060406109e887828801610951565b92505060606109f987828801610951565b91505092959194509250565b600060208284031215610a1b57610a1a6106fc565b5b6000610a2984828501610951565b91505092915050565b60006020820190508181036000830152610a4c8184610895565b905092915050565b7f4e487b7100000000000000000000000000000000000000000000000000000000600052602260045260246000fd5b60006002820490506001821680610a9b57607f821691505b602082108103610aae57610aad610a54565b5b50919050565b600081905092915050565b6000610aca826105a1565b610ad48185610ab4565b9350610ae48185602086016105bd565b80840191505092915050565b6000610afc8284610abf565b91508190509291505056fea2646970667358221220acf523753ecd85cde0f97e6a40cf433049f560158605f9d04a9d1e562e5874eb64736f6c634300080d0033",
  "immutableReferences": {},
  "source": "// SPDX-License-Identifier: MIT\npragma solidity >=0.4.22 <0.9.0;\n\ncontract Vehicles {\n    struct Vehicle {\n        string vehicle_id;\n        string vehicle_type;\n        //    once voting has started, the list of participants who have voted\n        uint256 trust;\n        \n       uint256  sector;\n    }\n    mapping(string => Vehicle) public vehicleData;\n\n    string[] public v_id;\n\n    function getVehicleData(\n        string memory vehicle_id,\n        string memory vehicle_type,\n        uint256 trust,\n        uint256 sector\n    ) public {\n        Vehicle memory obj;\n        obj.vehicle_id = vehicle_id;\n        obj.vehicle_type = vehicle_type;\n        obj.trust = trust;\n        obj.sector =sector;\n\n        vehicleData[vehicle_id] = obj;\n        v_id.push(vehicle_id);\n    }\n\n    function showVehicleData() public view returns (string[] memory) {\n        return v_id;\n    }\n}\n",
  "sourcePath": "C:\\Users\\goura\\OneDrive\\Desktop\\blockchain\\rp\\truffle\\contracts\\Vehicles.sol",
  "compiler": {
    "name": "solc",
    "version": "0.8.13+commit.abaa5c0e.Emscripten.clang"
  },
  "schemaVersion": "3.4.16",
  "updatedAt": "2023-11-17T17:53:03.841Z",
  "networkType": "ethereum",
  "devdoc": {
    "kind": "dev",
    "methods": {},
    "version": 1
  },
  "userdoc": {
    "kind": "user",
    "methods": {},
    "version": 1
  }
}